:100000000C9450030C946D030C946D030C946D03CD
:100010000C946D030C946D030C946D030C946D03A0
:100020000C946D030C946D030C946D030C946D0390
:100030000C946D030C946D030C946D030C946D0380
:100040000C946D030C946D030C946D030C946D0370
:100050000C946D030C946D030C946D030C946D0360
:100060000C946D030C946D031E05200522052405D8
:1000700026052805D2062A052C052E053005D206B0
:1000800032053405360538053A053C053E05400580
:1000900042054405460548054A054C054E055005F0
:1000A00052055405560558055A055C055E05600560
:1000B00062056405660568056A056C056E057005D0
:1000C00072057405760578057A057C057E05800540
:1000D00082058405860588058A058C058E05D2066D
:1000E000900592059405960598059A059C059E0530
:1000F000A005A205A405A605A805AA05AC05AE05A0
:10010000B005B205B405B605B805BA05BC05BE050F
:10011000C005C205C405C605C805CA05CC05CE057F
:10012000D005D205D405D605D805DA05DC05DE05EF
:10013000E005E205E405E605E805EA05EC05EE055F
:10014000F005F205F405F605F805FA05FC05FE05CF
:10015000000602060406D2060606D20608060A06AD
:100160000C060E06100612061406160618061A06C7
:100170001C061E06200622062406260628062A0637
:100180002C062E06300632063406360638063A06A7
:100190003C063E06400642064406460648064A0617
:1001A0004C064E06500652065406560658065A0687
:1001B0005C065E06600662066406660668066A06F7
:1001C0006C066E06700672067406760678067A0667
:1001D0007C067E06800682068406860688068A06D7
:1001E0008C068E06900692069406960698069A0647
:1001F0009C069E06A006A206A406A606A806AA06B7
:10020000AC06AE06B006B206B406B606B806BA0626
:10021000BC06BE06C006C206C406C606C806CA0696
:10022000CC06CE06D006F6083D0B3D0B2B09600927
:100230009509CA09FF09340A690A9E0AD30A080BFC
:1002400000000000000000F2000000C000C0002814
:10025000FE28FE282454FE5448C4C81026466C923A
:10026000AA440A00A0C00000003844820000824472
:10027000380028107C102810107C1010000A0C0088
:100280000010101010100006060000040810204096
:100290007CA2928A7C0042FE020042868A9262849C
:1002A00082A2D28C182848FE08E4A2A2A29C3C524A
:1002B00092920C808E90A0C06C9292926C609292FE
:1002C00094780066660000006C6A00001028448282
:1002D000002828282828008244281040808A90601E
:1002E0007C82BAAA787E8888887EFE9292926C7C04
:1002F00082828244FE82824438FE92929282FE90F2
:100300009090807C8292925EFE101010FE0082FE21
:100310008200040282FC80FE10284482FE02020257
:1003200002FE402040FEFE201008FE7C8282827C7D
:10033000FE909090607C828A847A7E909894626429
:100340009292924C8080FE8080FC020202FCF804B3
:100350000204F8FC023C02FCC6281028C6E0100E7D
:1003600010E0868A92A2C200FE8282000408102059
:1003700040008282FE0020408040200202020202F1
:100380000080400000242A2A2A1EFE1222221C1C61
:10039000222222101C222212FE1C2A2A2A18107E37
:1003A000908040102A2A2A3CFE0810100E0022BE1F
:1003B0000200040222BC00FE081422000082FE0299
:1003C000003E201E201E3E1020201E1C2222221C29
:1003D0001F14141408081414141F3E1020201012A7
:1003E0002A2A2A04103C1202043C0202043E380469
:1003F0000204383C020C023C2214081422300A0A7F
:100400000A3C22262A322200106C82000000FE00E4
:100410000000826C1000408040408000000000001E
:100420000713355890FE40C040400002100000FF06
:1004300081818181FF81BDBDBD81818181FFBDBD84
:10044000BD81FF8181818181BDBDBDBDBD787878D1
:1004500078780F0F0F0F0F7F7F7F7F00007F7F7FE8
:100460007F7F7F7F7F607F7F7F7F03037F7F7F7FB3
:10047000607F7F7F7F7F7F7F7F787F7F7F7F0F0F92
:100480007F7F7F7F787F7F7F7F001C1C1C000002A6
:10049000020200020202020200000000006060602E
:1004A0006060030303030300442810003E083E0A73
:1004B000043E48942200203E24080638080E0838DE
:1004C0000000000000308A4A8A3C308A8A8A3C0C4C
:1004D000828282FC221C141C223E2020200000006C
:1004E000EE00000452AA94403EAA2AAA227CC69298
:1004F000D67C7C9292924410284410281010101040
:100500001C00000000007C82AED27C00C27EC200D3
:1005100060909060002222FA22220082FE82000077
:10052000228E22007E404040C07F0404780444E2D2
:10053000E202FC00000200001CAA2AAA107E100899
:100540007E241C2A2A22002810442810040222BCDF
:1005500000649292924C122A2A2A0400A23EA2001F
:100560007E8888887EFEA2A2A29CFE9292926CFE59
:10057000808080C0067C84FC06FE92929282EE10FF
:10058000FE10EE449292926CFE081020FE7E04C88B
:10059000107EFE10284482027C8080FEFE402040B7
:1005A000FEFE101010FE7C8282827CFE808080FE27
:1005B000FE888888707C828282448080FE8080E40D
:1005C000121222FC3048FE4830C6281028C6FE020F
:1005D00002FE03F0080808FEFE02FE02FEFE02FE16
:1005E00002FF80FE12120CFE120C00FE00FE121220
:1005F0000C449292927CFE107C827C62949890FED5
:10060000242A2A2A1E3C5252920C3E2A2A14003EC8
:1006100020203000031E223E031C2A2A2A183608F6
:100620003E08362A2A2A14003E0408103E3E84481A
:10063000103E3E08142200021C203E003E1008100E
:100640003E3E0808083E1C2222221C3E2020203E5E
:100650003E282828101C2222221020203E20203054
:100660000A0A0A3C08143E140822140814223E0206
:10067000023E03300808083E3E023E023E3E023E75
:10068000023F203E0A0A043E0A04003E003E0A0AD7
:100690000414222A2A1C3E081C221C102A2C283E44
:1006A00011241FBECFEFD8E0DEBFCDBF11E0A0E028
:1006B000B1E0E6E5F1E302C005900D92AE3FB1076F
:1006C000D9F722E0AEEFB1E001C01D92A230B2072F
:1006D000E1F70E94A1170C94A9180C9400003D9A10
:1006E000459885E08A95F1F700003C9A449895E09A
:1006F0009A95F1F700003D98459A85E08A95F1F7C3
:1007000000003C98449A95E09A95F1F700003499DE
:1007100002C082E001C080E0359B8F5F95E09A9532
:10072000F1F7000095E09A95F1F7000095E09A95B1
:10073000F1F7000095E09A95F1F7000008953C9AD2
:10074000449885E08A95F1F700003D9A459885E048
:100750008A95F1F7000008953C98449A85E08A95BF
:10076000F1F700003D98459A85E08A95F1F7000081
:100770003C9A449885E08A95F1F700003D9A4598A7
:1007800085E08A95F1F7000008953C98449A3D98D9
:10079000459A0E946F03089598E088231CF03C9AC4
:1007A000449802C03C98449A25E02A95F1F700004D
:1007B0003D98459A25E02A95F1F700003D9A459825
:1007C000880F915051F73C98449A85E08A95F1F74B
:1007D00000003D98459A25E02A95F1F7000086B182
:1007E0003D9A4598829581700895282F3C98449AA7
:1007F00098E080E0880F3D98459A35E03A95F1F70A
:100800000000349981603D9A459835E03A95F1F7BA
:100810000000915079F7211103C03C9A449802C01E
:100820003C98449A95E09A95F1F700003D98459AD6
:1008300035E03A95F1F700003D9A459895E09A9594
:10084000F1F700003C98449A0895CF93C82F0E9476
:100850009F0388E70E94CC0380E00E94CC038C2F8A
:100860000E94CC030E946F03CF910895CF93C82FAD
:100870000E949F0388E70E94CC0380E40E94CC037F
:100880008C2F0E94CC030E946F03CF910895CF93C9
:10089000C82F611104C081EB0E9425040EC0613095
:1008A00021F480EB0E94250408C08EEF860F86306D
:1008B00020F489EB861B0E9425048C2F82958F7073
:1008C00080610E9425048C2F8E7081600E94250417
:1008D000CF910895CF93DF93D0EB8D2F0E94250405
:1008E00080E00E94250480E10E942504C0E080E0B1
:1008F0000E943604CF5FC038D1F7DF5FD83B69F77D
:10090000DF91CF910895CF930E94C5032FEF81EE21
:1009100094E0215080409040E1F700C000008EEA52
:100920000E94250485ED0E94250480E80E9425048C
:1009300088EA0E9425048FE30E94250483ED0E942B
:10094000250480EF0E94250480E40E9425048DE8A0
:100950000E94250484E10E94250480E20E9425046F
:1009600080E00E94250481EA0E94250480EC0E9418
:1009700025048AED0E94250482E00E94250481E876
:100980000E9425048FE80E94250489ED0E94250419
:1009900081EF0E9425048BED0E94250481E00E94D6
:1009A000250484EA0E94250486EA0E9425048FEA31
:1009B0000E942504C82F0E946A048C2FCF910895AD
:1009C000643008F063E0863108F085E1982F990FD4
:1009D000890F880F0E94470408950F931F93CF93A8
:1009E000DF93803210F0805201C080E090E08C01F3
:1009F000000F111F000F111F080F191FE801C05C25
:100A0000DD4F0B5B1D4FFE0184910E943604219641
:100A1000C017D107C1F780E00E943604DF91CF9163
:100A20001F910F91089590E0FC01B197EF3DF10502
:100A300008F0B8C1EC5CFF4F0C943D1881E20895BA
:100A400082E2089583E2089584E2089585E208959C
:100A500086E2089588E2089589E208958AE2089579
:100A60008BE208958DE208958EE208958FE2089555
:100A700080E3089581E3089582E3089583E3089570
:100A800084E3089585E3089586E3089587E3089550
:100A900088E3089589E308958AE308958BE3089530
:100AA0008CE308958DE308958EE308958FE3089510
:100AB00080E4089581E4089582E4089583E408952C
:100AC00084E4089585E4089586E4089587E408950C
:100AD00088E4089589E408958AE408958BE40895EC
:100AE0008CE408958DE408958EE408958FE40895CC
:100AF00080E5089581E5089582E5089583E50895E8
:100B000084E5089585E5089586E5089587E50895C7
:100B100088E5089589E508958AE508958BE50895A7
:100B20008DE508958EE508958FE5089580E6089592
:100B300081E6089582E6089583E6089584E608959F
:100B400085E6089586E6089587E6089588E608957F
:100B500089E608958AE608958BE608958CE608955F
:100B60008DE608958EE608958FE6089580E708954E
:100B700081E7089582E7089583E7089584E708955B
:100B800085E7089586E7089587E7089588E708953B
:100B900089E708958AE708958BE708958CE708951B
:100BA0008DE708958EE708958FE7089580E808950A
:100BB00081E8089582E8089583E8089584E8089517
:100BC00085E8089586E8089587E8089588E80895F7
:100BD00089E808958AE808958BE808958CE80895D7
:100BE0008DE808958EE808958FE8089580E90895C6
:100BF00081E9089582E9089583E9089584E90895D3
:100C000085E9089586E9089587E9089589E90895B1
:100C10008BE908958CE908958DE908958EE908958A
:100C20008FE9089580EA089581EA089582EA089597
:100C300083EA089584EA089585EA089586EA089586
:100C400087EA089588EA089589EA08958AEA089566
:100C50008BEA08958CEA08958DEA08958EEA089546
:100C60008FEA089580EB089581EB089582EB089553
:100C700083EB089584EB089585EB089586EB089542
:100C800087EB089588EB089589EB08958AEB089522
:100C90008BEB08958CEB08958DEB08958EEB089502
:100CA0008FEB089580EC089581EC089582EC08950F
:100CB00083EC089584EC089585EC089586EC0895FE
:100CC00087EC089588EC089589EC08958AEC0895DE
:100CD0008BEC08958CEC08958DEC08958EEC0895BE
:100CE0008FEC089580ED089581ED089582ED0895CB
:100CF00083ED089584ED089585ED089586ED0895BA
:100D000087ED089588ED089589ED08958AED089599
:100D10008BED08958CED08958DED08958EED089579
:100D20008FED089580EE089581EE089582EE089586
:100D300083EE089584EE089585EE089586EE089575
:100D400087EE089588EE089589EE08958AEE089555
:100D50008BEE08958CEE08958DEE08958EEE089535
:100D60008FEE089580EF089581EF089582EF089542
:100D700083EF089584EF089585EF089586EF089531
:100D800087EF089588EF089589EF08958AEF089511
:100D90008BEF08958CEF08958DEF08958EEF0895F1
:100DA0008FEF089580E00895CF93DF93EC01888161
:100DB000882341F021960E9413050E94ED04899139
:100DC0008111F9CFDF91CF9108950E94C5032FEFD4
:100DD00081EE94E0215080409040E1F700C0000097
:100DE0000E949F0380ED0E94CC0380E70E94CC0309
:100DF00081E00E94CC0387E40E94CC0381E00E9442
:100E0000CC0387E10E94CC0380E00E94CC0387E002
:100E10000E94CC0380E00E94CC0380E70E94CC03B8
:100E200080E00E94CC0382E60E94CC0380E00E9416
:100E3000CC030E946F030895CF939DEC899F912D61
:100E40001124969596959695392F330F232F220FBF
:100E5000220F230F821BC82F20E1929FC00D112467
:100E60000E949F0380ED0E94CC0382E00E94CC038D
:100E70008C2F0E94CC030E946F03CF910895CF93D3
:100E80009DEC899F912D1124969596959695392FD5
:100E9000330F232F220F220F230F821BC82F20E195
:100EA000929FC00D11240E949F0380ED0E94CC03ED
:100EB00081E00E94CC038C2F0E94CC030E946F0320
:100EC000CF910895CF939DEC899F912D11249695F4
:100ED00096959695392F330F232F220F220F230F2C
:100EE000821BC82F20E1929FC00D11240E949F03F6
:100EF00080ED0E94CC0380E00E94CC038C2F0E94E6
:100F0000CC030E946F03CF910895CF930E949F035B
:100F100080ED0E94CC0381E00E94CC030E946F030D
:100F20000E949F0381ED0E94CC0381E00E94F503A3
:100F3000C82F0E946F038C2F82958F70880F982F77
:100F4000990F990F890FCF708C0FCF910895CF9380
:100F50000E949F0380ED0E94CC0382E00E94CC039C
:100F60000E946F030E949F0381ED0E94CC0381E0E9
:100F70000E94F503C82F0E946F038C2F82958F70FB
:100F8000880F982F990F990F890FCF708C0FCF91E1
:100F90000895549A5C9887EA97E00197F1F700C0AA
:100FA00000005498EFE0F1E03197F1F700C0000045
:100FB00089B1E7E9F6E03197F1F700C000008071F0
:100FC000089598E080E0549A2AE02A95F1F700C04D
:100FD0005498E5E1EA95F1F7000086954C99806810
:100FE000E7EFF0E03197F1F700C00000915059F7BA
:100FF000089598E0549A2AE02A95F1F700C080FFFE
:1010000002C0549801C0549A8695E7EFF0E03197FA
:10101000F1F700C000005498FAE0FA95F1F700C02B
:10102000915041F70895CF930E94C9078CEC0E941C
:10103000F90784E40E94F9072FEF83ED90E3215034
:1010400080409040E1F700C000000E94C9078CEC8E
:101050000E94F9078EEB0E94F9070E94E107C82F52
:101060000E94E10720E1829FC00111248077C29590
:10107000CF708C2BCF91089533990FC033990FC047
:101080002FEF81EE94E0215080409040E1F700C0C6
:101090000000339BF5CF81E0089580E0089581E062
:1010A0000895329B0EC080E008952FEF30E792E064
:1010B000215030409040E1F700C00000815011F411
:1010C00005C08AE0329BF1CF81E0089581E0089568
:1010D000319B0EC080E008952FEF30E792E0215061
:1010E00030409040E1F700C00000815011F405C08D
:1010F0008AE0319BF1CF81E0089581E00895CF939C
:10110000DF93853608F084E6DDEC8D9FD12D112428
:10111000D695D69580E00E94E004D11104C083E802
:101120000E94ED041AC084E80E94ED0416C0DC178A
:1011300020F088E80E94ED0403C087E80E94ED04D7
:10114000CF5FC431A1F7D43120F086E80E94ED04CE
:1011500006C085E80E94ED0402C0C2E0E8CFDF913E
:10116000CF910895CF93DF93D82FC62F60E08C2FB7
:101170000E94E00480EA0E94ED0480EA0E94ED04EF
:1011800080EA0E94ED0461E08C2F0E94E00480EA76
:101190000E94ED0480EA0E94ED0480EA0E94ED04C2
:1011A00062E08C2F0E94E00480EA0E94ED0480EA55
:1011B0000E94ED0480EA0E94ED0463E08C2F0E94FF
:1011C000E00480EA0E94ED0480EA0E94ED0480EAD7
:1011D0000E94ED048D2F90E0FC01BD97ED30F105EC
:1011E00008F04BC2ED5EFE4F0C943D1860E08C2F72
:1011F0000E94E00480EA0E94ED0480EA0E94ED046F
:1012000080EA0E94ED0461E08C2F0E94E00480EAF5
:101210000E94ED0480EA0E94ED0480EA0E94ED0441
:1012200062E08C2F0E94E00480EA0E94ED0480EAD4
:101230000E94ED0480EA0E94ED0463E08C2F0E947E
:10124000E00480EA0E94ED0480EA0E94ED0480EA56
:101250000E94ED0446C260E08C2F0E94E00481E908
:101260000E94ED0489E80E94ED0484E90E94ED04E7
:1012700061E08C2F0E94E0048BE80E94ED0480EA7C
:101280000E94ED048CE80E94ED0462E08C2F0E9425
:10129000E0048BE80E94ED0480EA0E94ED048CE8F3
:1012A0000E94ED0463E08C2F0E94E00482E90E941A
:1012B000ED048AE80E94ED0483E90E94ED0411C266
:1012C00060E08C2F0E94E00480EA0E94ED0480EA36
:1012D0000E94ED048CE80E94ED0461E08C2F0E94D6
:1012E000E00480EA0E94ED0480EA0E94ED048CE8AC
:1012F0000E94ED0462E08C2F0E94E00480EA0E94CC
:10130000ED0480EA0E94ED048CE80E94ED0463E0A5
:101310008C2F0E94E00480EA0E94ED0480EA0E9483
:10132000ED048CE80E94ED04DCC160E08C2F0E948B
:10133000E00489E80E94ED0489E80E94ED0484E954
:101340000E94ED0461E08C2F0E94E0048AE90E9473
:10135000ED048AE90E94ED048FE80E94ED0462E04A
:101360008C2F0E94E0048DE80E94ED0489E90E9420
:10137000ED0489E90E94ED0463E08C2F0E94E004F3
:1013800082E90E94ED048AE80E94ED048AE80E9446
:10139000ED04A7C160E08C2F0E94E00489E80E9460
:1013A000ED0489E80E94ED0484E90E94ED0461E007
:1013B0008C2F0E94E0048AE90E94ED048AE90E94D1
:1013C000ED048FE80E94ED0462E08C2F0E94E0049F
:1013D00089E90E94ED0489E90E94ED0480E90E94F8
:1013E000ED0463E08C2F0E94E0048AE80E94ED0483
:1013F0008AE80E94ED0483E90E94ED0472C160E076
:101400008C2F0E94E0048BE80E94ED0480EA0E9489
:10141000ED048CE80E94ED0461E08C2F0E94E00452
:101420008EE80E94ED048AE90E94ED048FE80E9494
:10143000ED0462E08C2F0E94E00489E90E94ED0433
:1014400089E90E94ED0480E90E94ED0463E08C2F9D
:101450000E94E00480E20E94ED0480E20E94ED041C
:101460008CE80E94ED043DC160E08C2F0E94E004F6
:1014700081E90E94ED0489E80E94ED0489E80E9458
:10148000ED0461E08C2F0E94E0048EE80E94ED04E0
:101490008AE90E94ED048AE90E94ED0462E08C2F43
:1014A0000E94E00489E90E94ED0489E90E94ED04AC
:1014B00080E90E94ED0463E08C2F0E94E0048AE83A
:1014C0000E94ED048AE80E94ED0483E90E94ED0485
:1014D00008C160E08C2F0E94E00481E90E94ED04C5
:1014E00089E80E94ED0489E80E94ED0461E08C2FF8
:1014F0000E94E0048EE80E94ED048AE90E94ED0457
:101500008AE90E94ED0462E08C2F0E94E0048DE8DD
:101510000E94ED0489E90E94ED0480E90E94ED0437
:1015200063E08C2F0E94E00482E90E94ED048AE8C7
:101530000E94ED0483E90E94ED04D3C060E08C2F8B
:101540000E94E00489E80E94ED0489E80E94ED040D
:1015500084E90E94ED0461E08C2F0E94E00480EA9F
:101560000E94ED0480EA0E94ED048CE80E94ED04E4
:1015700062E08C2F0E94E00480EA0E94ED0480EA81
:101580000E94ED048CE80E94ED0463E08C2F0E9421
:10159000E00480EA0E94ED0480EA0E94ED048CE8F9
:1015A0000E94ED049EC060E08C2F0E94E00481E95F
:1015B0000E94ED0489E80E94ED0484E90E94ED0494
:1015C00061E08C2F0E94E0048EE80E94ED048AE91D
:1015D0000E94ED048FE80E94ED0462E08C2F0E94CF
:1015E000E0048DE80E94ED0489E90E94ED0480E9A1
:1015F0000E94ED0463E08C2F0E94E00482E90E94C7
:10160000ED048AE80E94ED0483E90E94ED0469C0BC
:1016100060E08C2F0E94E00481E90E94ED0489E8DB
:101620000E94ED0484E90E94ED0461E08C2F0E9489
:10163000E0048EE80E94ED048AE90E94ED048FE840
:101640000E94ED0462E08C2F0E94E00489E90E9470
:10165000ED0489E90E94ED0480E90E94ED0463E055
:101660008C2F0E94E0048AE80E94ED048AE80E9420
:10167000ED0483E90E94ED0434C060E08C2F0E94E9
:10168000E00481E90E94ED0489E80E94ED0484E908
:101690000E94ED0461E08C2F0E94E0048BE80E9420
:1016A000ED0480EA0E94ED048CE80E94ED0462E003
:1016B0008C2F0E94E0048BE80E94ED0480EA0E94D7
:1016C000ED048CE80E94ED0463E08C2F0E94E0049E
:1016D00082E90E94ED048AE80E94ED0483E90E94F9
:1016E000ED04DF91CF9108958091FE01811120C01A
:1016F00060E088E00E94E00480E20E94ED0461E086
:1017000088E00E94E00485E90E94ED0462E088E040
:101710000E94E00485E90E94ED0463E088E00E94F5
:10172000E00480E20E94ED0481E08093FE010895D0
:1017300060E088E00E94E00480E20E94ED0461E045
:1017400088E00E94E00480E20E94ED0462E088E00C
:101750000E94E00480E20E94ED0463E088E00E94C1
:10176000E00480E20E94ED041092FE0108950F93C0
:101770001F93CF93DF9300D000D000D0CDB7DEB75A
:10178000082F162F8091FF018017E9F00093FF01C9
:101790004AE0BE016F5F7F4F802F90E00E944318A8
:1017A0000A3048F460E08DE20E94B20864E089816A
:1017B0000E94B20808C060E089810E94B20864E01B
:1017C0008A810E94B208809100028117E9F010938B
:1017D00000024AE0BE016C5F7F4F812F90E00E94C3
:1017E00043181A3048F46AE080E30E94B2086EE0C1
:1017F0008C810E94B20808C06AE08C810E94B20805
:101800006EE08D810E94B20826960FB6F894DEBF76
:101810000FBECDBFDF91CF911F910F910895CF9251
:10182000DF92EF92FF920F931F93CF93DF9300D03D
:1018300000D0CDB7DEB7182F062F6A0179010E94BC
:101840006A0460E080E00E94E004C6010E94D406C1
:1018500061E080E00E94E004C7010E94D40662E0DB
:1018600080E00E94E00480E091E00E94D40662E003
:1018700080E00E94E0041A3020F486E191E00E94AA
:10188000D4064AE0BE016F5F7F4F812F90E00E9437
:101890004318CE0101960E94D40688E191E00E948F
:1018A000D4060A3020F486E191E00E94D4064AE092
:1018B000BE016D5F7F4F802F90E00E944318CE01E4
:1018C00003960E94D40663E080E00E94E00489E968
:1018D0000E94ED0489E90E94ED0444C00E94510871
:1018E0008823D1F01F5F183108F042C062E080E029
:1018F0000E94E0041A3020F486E191E00E94D406B0
:101900004AE0BE016F5F7F4F812F90E00E94431835
:10191000CE0101960E94D4060E9468088823C9F06F
:10192000112361F1115062E080E00E94E0041A305E
:1019300020F486E191E00E94D4064AE0BE016F5F88
:101940007F4F812F90E00E944318CE0101960E94A4
:10195000D4062FEF80E792E0215080409040E1F7DD
:1019600000C000000E943C08882309F4B7CF0CC0D7
:1019700062E080E00E94E00410E0BECF62E080E020
:101980000E94E00417E1D9CF812F0F900F900F90A4
:101990000F90DF91CF911F910F91FF90EF90DF900B
:1019A000CF900895CF92DF92EF92FF920F931F9303
:1019B000CF93DF9300D000D0CDB7DEB7082F162F1E
:1019C0006A0179010E946A0460E080E00E94E004FC
:1019D000C6010E94D40661E080E00E94E004C701D5
:1019E0000E94D40662E080E00E94E00480E091E082
:1019F0000E94D40662E080E00E94E0040A3020F4F5
:101A000086E191E00E94D4064AE0BE016F5F7F4FFD
:101A1000802F90E00E944318CE0101960E94D406C8
:101A200088E191E00E94D4061A3020F486E191E02A
:101A30000E94D4064AE0BE016D5F7F4F812F90E087
:101A40000E944318CE0103960E94D40663E083E00F
:101A50000E94E00489E90E94ED0489E90E94ED04F6
:101A600044C00E9451088823D1F01F5F1C3308F046
:101A700042C062E083E00E94E0041A3020F486E174
:101A800091E00E94D4064AE0BE016D5F7F4F812F36
:101A900090E00E944318CE0103960E94D4060E9453
:101AA00068088823C9F0112361F1115062E083E0D6
:101AB0000E94E0041A3020F486E191E00E94D406EE
:101AC0004AE0BE016D5F7F4F812F90E00E94431876
:101AD000CE0103960E94D4062FEF80E792E02150BA
:101AE00080409040E1F700C000000E943C0888233D
:101AF00009F4B7CF0CC062E083E00E94E00410E07C
:101B0000BECF62E083E00E94E0041BE3D9CF812FC7
:101B10000F900F900F900F90DF91CF911F910F9129
:101B2000FF90EF90DF90CF900895CF92DF92EF92E9
:101B3000FF920F931F93CF93DF9300D000D01F929B
:101B4000CDB7DEB78C016B017A010E946A0460E0B8
:101B500080E00E94E004C6010E94D40661E080E0BB
:101B60000E94E0048AE191E00E94D40662E080E0F5
:101B70000E94E00480E391E00E94D40662E088E0E5
:101B80000E94E0040436110520F486E191E00E94F1
:101B9000D4060A30110520F486E191E00E94D406B3
:101BA0004AE0BE016F5F7F4FC8010E944318CE011B
:101BB00001960E94D40663E088E00E94E00489E96F
:101BC0000E94ED0489E90E94ED0489E90E94ED0478
:101BD00059C00E945108882319F10F5F1F4FE0166A
:101BE000F10608F455C062E088E00E94E004043683
:101BF000110520F486E191E00E94D4060A30110517
:101C000020F486E191E00E94D4064AE0BE016F5FB5
:101C10007F4FC8010E944318CE0101960E94D4064E
:101C20000E946808882329F10115110519F487011C
:101C30000F5F1F4F0150110962E088E00E94E0042D
:101C40000436110520F486E191E00E94D4060A30A2
:101C5000110520F486E191E00E94D4064AE0BE011D
:101C60006F5F7F4FC8010E944318CE0101960E940A
:101C7000D4062FEF80E792E0215080409040E1F7BA
:101C800000C000000E943C08882309F4A2CF07C0CE
:101C900062E088E00E94E00400E010E0ABCFC80101
:101CA0000F900F900F900F900F90DF91CF911F9199
:101CB0000F91FF90EF90DF90CF90089580E78AB961
:101CC0001BB817B88EE088B98FE084B915B80895AD
:101CD000873601F130F4823661F1863609F461C04D
:101CE0000895823721F0873709F43FC00895809125
:101CF000B300882331F0611163C023988091B30051
:101D000006C08091B300811102C06111239A6093D3
:101D1000B300089587B5882329F0611157C05698FC
:101D200087B505C087B5811102C06111569A67BD9C
:101D3000089580918A0090918B00892B41F0611168
:101D40004AC0229880918A0090918B0008C08091AF
:101D50008A0090918B00892B11F46111229A70E016
:101D600070938B0060938A00089580918800909111
:101D70008900892B41F0611136C02198809188003B
:101D80009091890008C08091880090918900892BEA
:101D900011F46111219A70E07093890060938800BA
:101DA000089588B5882329F0611124C0559888B515
:101DB00005C088B5811102C06111559A68BD0895AA
:101DC0008091B300882309F4A1CFA1CF87B58823E0
:101DD00009F4ACCFACCF80918A0090918B00892B15
:101DE00009F4BCCFBCCF8091880090918900892BE9
:101DF00089F2D1CF88B5882301F3E0CFCF92DF926B
:101E0000EF92FF920F931F93CF93DF93C82F8B0115
:101E10006A01E22E0E946A0460E080E00E94E00411
:101E2000C6010E94D40662E080E00E94E004C8017E
:101E30000E94D4060C2F10E024E6C29FC00111249A
:101E40006FEF70E00E942918862F63E00E947F08E0
:101E5000F12CB801C7010E94680ED4E6CC24CA94C4
:101E6000D12C3AC00E9451088823A9F0CF3F09F035
:101E7000CF5F0C2F10E0D09FC001D19F900D112497
:101E8000B6010E942918862F63E00E947F08B801DE
:101E9000C7010E94680E0E9468088823A1F0C11142
:101EA000C1500C2F10E0D09FC001D19F900D112484
:101EB000B6010E942918862F63E00E947F08B801AE
:101EC000C7010E94680E8FEF90E722E0815090409A
:101ED0002040E1F700C000000E943C08882311F276
:101EE0008C2FDF91CF911F910F91FF90EF90DF909A
:101EF000CF900895EF92FF920F931F93CF93DF93AC
:101F000060E070E087E790E00E94680E60E070E0BB
:101F100082E790E00E94680E60E070E087E690E063
:101F20000E94680E60E070E082E690E00E94680E19
:101F300060E070E086E690E00E94680E28980E94BB
:101F4000AC030E94A707C82F0E94AC030E9485071C
:101F5000D82F0E94AC0324E131E049E351E06D2F1A
:101F60008C2F0E940F0CC82F0E948507D82F0E942B
:101F7000AC0324E131E049E351E06D2F8C2F0E9446
:101F8000D20CD82F8C2F0E941C070E94AC038D2FDF
:101F90000E943F070E94AC0380E00E9462070E94FB
:101FA000AC03F999FECF81E290E00E94781827E710
:101FB00049E451E06FE471E00E94FE0EC82F60E03A
:101FC00070E087E790E00E94680EF999FECF6C2FD1
:101FD00081E290E00E948618F999FECF80E290E0BD
:101FE0000E947818D82FF999FECF8FE190E00E94D7
:101FF0007818C82FD83108F0D0E0CC3308F0C0E012
:1020000024E631E044E751E06C2F8D2F0E940F0C45
:10201000D82FF999FECF6D2F80E290E00E948618AC
:1020200024E631E044E751E06C2F8D2F0E94D20C62
:10203000F999FECF682F8FE190E00E948618F999F8
:10204000FECF8EE190E00E947818D82FF999FECF4C
:102050008DE190E00E947818C82FD83108F0D0E0C8
:10206000CC3308F0C0E02FE731E044E751E06C2FBB
:102070008D2F0E940F0CD82FF999FECF6D2F8EE176
:1020800090E00E9486182FE731E044E751E06C2F82
:102090008D2F0E94D20CF999FECF682F8DE190E030
:1020A0000E948618F999FECF8BE190E00E9480187B
:1020B000EC01F999FECF80E290E00E947818E82EBA
:1020C0008FE190E00E9478180F2EFCE3FF2EF02D98
:1020D000082F10E0FE9C000D111D11248EE190E0F0
:1020E0000E947818E82E8DE190E00E947818482F21
:1020F00050E0FE9C400D511D11244017510728F05F
:10210000401B510B5695479506C040565A4F401BF1
:10211000510B56954795C13D22E0D20710F0C0E023
:10212000D0E064E771E0CE010E94950DF999FECFF1
:10213000BC018BE190E00E949418F999FECF8AE1EE
:1021400090E00E94781822E740E951E06FE471E0E6
:102150000E94FE0EC82F60E070E082E790E00E94CF
:10216000680EF999FECF6C2F8AE190E00E948618E4
:10217000F999FECF89E190E00E947818D82FF9995B
:10218000FECF88E190E00E947818C82FD83108F07F
:10219000D0E0CC3308F0C0E024E631E048E951E07B
:1021A0006C2F8D2F0E940F0CD82FF999FECF6D2F19
:1021B00089E190E00E94861824E631E048E951E088
:1021C0006C2F8D2F0E94D20CF999FECF682F88E1D9
:1021D00090E00E948618F999FECF87E190E00E9476
:1021E0007818D82FF999FECF86E190E00E947818F0
:1021F000C82FD83108F0D0E0CC3308F0C0E02FE78A
:1022000031E048E951E06C2F8D2F0E940F0CD82F40
:10221000F999FECF6D2F87E190E00E9486182FE795
:1022200031E048E951E06C2F8D2F0E94D20CF999D2
:10223000FECF682F86E190E00E948618F999FECFC4
:1022400084E190E00E948018813A25E0920710F026
:1022500080E090E04AE050E068E971E00E94950D6E
:10226000F999FECFBC0184E190E00E949418F9999D
:10227000FECF83E190E00E94781827E645EA51E01E
:102280006FE471E00E94FE0EC82F60E070E087E608
:1022900090E00E94680EF999FECF6C2F83E190E0E8
:1022A0000E948618F999FECF82E190E00E9478188A
:1022B000D82FF999FECF81E190E00E947818C82FBD
:1022C000D83108F0D0E0CC3308F0C0E024E631E0AB
:1022D0004DEA51E06C2F8D2F0E940F0CD82FF999E9
:1022E000FECF6D2F82E190E00E94861824E631E057
:1022F0004DEA51E06C2F8D2F0E94D20CF999FECF40
:10230000682F81E190E00E948618F999FECF80E164
:1023100090E00E947818D82FF999FECF8FE090E0D6
:102320000E947818C82FD83108F0D0E0CC3308F0DC
:10233000C0E02FE731E04DEA51E06C2F8D2F0E9475
:102340000F0CD82FF999FECF6D2F80E190E00E94FD
:1023500086182FE731E04DEA51E06C2F8D2F0E9457
:10236000D20CF999FECF682F8FE090E00E9486187A
:10237000F999FECF8DE090E00E948018813A25E027
:10238000920710F080E090E045E050E06DEA71E0E7
:102390000E94950DF999FECFBC018DE090E00E945E
:1023A0009418F999FECF8CE090E00E94781822E60C
:1023B0004AEB51E06FE471E00E94FE0EC82F60E02E
:1023C00070E082E690E00E94680EF999FECF6C2FD3
:1023D0008CE090E00E948618F999FECF8BE090E0A7
:1023E0000E947818D82FF999FECF8AE090E00E94D9
:1023F0007818C82FD83108F0D0E0CC3308F0C0E00E
:1024000024E631E040EC51E06C2F8D2F0E940F0C40
:10241000D82FF999FECF6D2F8BE090E00E9486189F
:1024200024E631E040EC51E06C2F8D2F0E94D20C5D
:10243000F999FECF682F8AE090E00E948618F999FA
:10244000FECF89E090E00E947818D82FF999FECF4E
:1024500088E090E00E947818C82FD83108F0D0E0CA
:10246000CC3308F0C0E02FE731E040EC51E06C2FB6
:102470008D2F0E940F0CD82FF999FECF6D2F89E078
:1024800090E00E9486182FE731E040EC51E06C2F7D
:102490008D2F0E94D20CF999FECF682F88E090E032
:1024A0000E948618F999FECF86E090E00E9480187D
:1024B000813A25E0920710F080E090E04FE050E094
:1024C00060EC71E00E94950DF999FECFBC0186E0A9
:1024D00090E00E949418F999FECF84E090E00E9469
:1024E000781826E64BEC51E066ED71E00E94FE0E96
:1024F000C82F60E070E086E690E00E94680EF999CF
:10250000FECF6C2F84E090E00E948618F999FECFF0
:1025100085E090E00E94781826E64BEC51E064EEEE
:1025200071E00E94FE0EC82F60E070E086E690E049
:102530000E94680EF999FECF6C2F85E090E00E9412
:102540008618F999FECF83E090E00E947818D82F82
:10255000F999FECF82E090E00E947818C82FD83118
:1025600008F0D0E0CC3308F0C0E024E631E043EFDF
:1025700051E06C2F8D2F0E940F0CD82FF999FECFB0
:102580006D2F83E090E00E94861824E631E043EF4F
:1025900051E06C2F8D2F0E94D20CF999FECF682F3D
:1025A00082E090E00E948618F999FECF81E090E0E9
:1025B0000E947818D82FF999FECF80E090E00E9411
:1025C0007818C82FD83108F0D0E0CC3308F0C0E03C
:1025D0002FE731E043EF51E06C2F8D2F0E940F0C5D
:1025E000D82FF999FECF6D2F81E090E00E948618D8
:1025F0002FE731E043EF51E06C2F8D2F0E94D20C7A
:10260000F999FECF682F80E090E00E9486180E9422
:102610006A041092FF011092000260E080E30E94C1
:10262000B20864E080E30E94B2086AE080E30E949E
:10263000B2086EE080E30E94B208DF91CF911F9153
:102640000F91FF90EF900895A8E8B0E011961C92CA
:102650001E92EAE8F0E0118210828FEF90E09093F2
:102660008700809386008FE390E011969C938E9371
:102670008FE190E091838083E0E8F0E08081806AE0
:102680008083808181608083E1E8F0E080818860E0
:1026900080838081826080831092B300E0EBF0E061
:1026A000808180688083808183608083E1EBF0E0BB
:1026B00080818260808317BC18BC84B5806884BD2B
:1026C00084B5806284BD84B5836084BD85B5826035
:1026D00085BD60E070E082E790E00E94680E60E0F7
:1026E00070E087E690E00E94680E60E070E082E6AD
:1026F00090E00E94680E60E070E087E790E00E9442
:10270000680E60E070E086E690E00E94680E089532
:10271000AF92BF92CF92DF92EF92FF920F931F93EF
:10272000CF93DF930F2EFCE3DF2EF02DC62FD0E0EA
:10273000D89EC00DD11D112480E290E00E9478182F
:10274000F82E8FE190E00E947818082F10E0DF9CAF
:10275000000D111D11248EE190E00E947818C82E02
:102760008DE190E00E947818E82EF12CDC9CE00CC2
:10277000F11C11248BE190E00E9480186C010E1571
:102780001F050CF053C0C017D1070CF44BC0CE1579
:10279000DF050CF047C05E01A01AB10AA816B90601
:1027A000E0F4BB20D4F0892BA1F181E290E00E94FB
:1027B00078182FEFA21AB20A282F2A9DC0012B9D4C
:1027C000900D1124B6010E94151887E70E94680E2B
:1027D000E016F1060CF49AC37CC05701AC1ABD0A8E
:1027E000AC14BD04B0F4BB20A4F0C114D10489F032
:1027F00081E290E00E947818282F2A9DC0012B9D2D
:10280000900D1124B6010E94151887E70E94680EEA
:1028100061C381E290E00E947818682F87E70E94E8
:10282000680E58C360E087E70E94680EE016F10664
:102830000CF04FC0C017D10724F4CE15DF050CF003
:1028400044C05E01A01AB10AAC14BD04C8F4BB2098
:10285000BCF0C114D10481F181E290E00E947818AB
:102860009FEFA91AB90A282F2A9DC0012B9D900D10
:102870001124B6010E94151887E70E94680E29C02E
:102880005701AC1ABD0AAC14BD04B0F4BB20A4F0CF
:10289000C114D10489F081E290E00E947818282FB9
:1028A0002A9DC0012B9D900D1124B6010E94151880
:1028B00087E70E94680E0DC081E290E00E947818C0
:1028C000682F87E70E94680E04C060E087E70E94D7
:1028D000680E0E151F0521F460E087E70E94680E60
:1028E00089E190E00E947818F82E88E190E00E943B
:1028F00078180F2EFCE3DF2EF02D082F10E0DF9C60
:10290000000D111D112487E190E00E947818C82E57
:1029100086E190E00E947818E82EF12CDC9CE00C17
:10292000F11C112484E190E00E9480186C010E15C6
:102930001F050CF053C0C017D1070CF44BC0CE15C7
:10294000DF050CF047C05E01A01AB10AA816B9064F
:10295000E0F4BB20D4F0892BA1F18AE190E00E9441
:1029600078189FEFA91AB90A282F2A9DC0012B9D1C
:10297000900D1124B6010E94151882E70E94680E7E
:10298000E016F1060CF4C6C27CC05701AC1ABD0AB1
:10299000AC14BD04B0F4BB20A4F0C114D10489F080
:1029A0008AE190E00E947818282F2A9DC0012B9D73
:1029B000900D1124B6010E94151882E70E94680E3E
:1029C0008EC28AE190E00E947818682F82E70E9408
:1029D000680E85C260E082E70E94680EE016F1068C
:1029E0000CF04FC0C017D10724F4CE15DF050CF052
:1029F00044C05E01A01AB10AAC14BD04C8F4BB20E7
:102A0000BCF0C114D10481F18AE190E00E947818F1
:102A10009FEFA91AB90A282F2A9DC0012B9D900D5E
:102A20001124B6010E94151882E70E94680E29C081
:102A30005701AC1ABD0AAC14BD04B0F4BB20A4F01D
:102A4000C114D10489F08AE190E00E947818282FFF
:102A50002A9DC0012B9D900D1124B6010E941518CE
:102A600082E70E94680E0DC08AE190E00E9478180B
:102A7000682F82E70E94680E04C060E082E70E942F
:102A8000680E0E151F0521F460E082E70E94680EB3
:102A900082E190E00E947818F82E81E190E00E9497
:102AA00078180F2EFCE3DF2EF02D082F10E0DF9CAE
:102AB000000D111D112480E190E00E947818C82EAD
:102AC0008FE090E00E947818E82EF12CDC9CE00C5E
:102AD000F11C11248DE090E00E9480186C010E150D
:102AE0001F050CF053C0C017D1070CF44BC0CE1516
:102AF000DF050CF047C05E01A01AB10AA816B9069E
:102B0000E0F4BB20D4F0892BA1F183E190E00E9496
:102B100078189FEFA91AB90A282F2A9DC0012B9D6A
:102B2000900D1124B6010E94151887E60E94680EC8
:102B3000E016F1060CF4F2C17CC05701AC1ABD0AD4
:102B4000AC14BD04B0F4BB20A4F0C114D10489F0CE
:102B500083E190E00E947818282F2A9DC0012B9DC8
:102B6000900D1124B6010E94151887E60E94680E88
:102B7000BBC183E190E00E947818682F87E60E942D
:102B8000680EB2C160E087E60E94680EE016F106AA
:102B90000CF04FC0C017D10724F4CE15DF050CF0A0
:102BA00044C05E01A01AB10AAC14BD04C8F4BB2035
:102BB000BCF0C114D10481F183E190E00E94781847
:102BC0009FEFA91AB90A282F2A9DC0012B9D900DAD
:102BD0001124B6010E94151887E60E94680E29C0CC
:102BE0005701AC1ABD0AAC14BD04B0F4BB20A4F06C
:102BF000C114D10489F083E190E00E947818282F55
:102C00002A9DC0012B9D900D1124B6010E9415181C
:102C100087E60E94680E0DC083E190E00E9478185C
:102C2000682F87E60E94680E04C060E087E60E9475
:102C3000680E0E151F0521F460E087E60E94680EFD
:102C40008BE090E00E947818F82E8AE090E00E94D5
:102C500078180F2EFCE3DF2EF02D082F10E0DF9CFC
:102C6000000D111D112489E090E00E947818C82EF3
:102C700088E090E00E947818E82EF12CDC9CE00CB3
:102C8000F11C112486E090E00E9480186C010E1562
:102C90001F050CF053C0C017D1070CF44BC0CE1564
:102CA000DF050CF047C05E01A01AB10AA816B906EC
:102CB000E0F4BB20D4F0892BA1F18CE090E00E94DD
:102CC00078189FEFA91AB90A282F2A9DC0012B9DB9
:102CD000900D1124B6010E94151882E60E94680E1C
:102CE000E016F1060CF41EC17CC05701AC1ABD0AF7
:102CF000AC14BD04B0F4BB20A4F0C114D10489F01D
:102D00008CE090E00E947818282F2A9DC0012B9D0E
:102D1000900D1124B6010E94151882E60E94680EDB
:102D2000E8C08CE090E00E947818682F82E60E944C
:102D3000680EDFC060E082E60E94680EE016F106D1
:102D40000CF04FC0C017D10724F4CE15DF050CF0EE
:102D500044C05E01A01AB10AAC14BD04C8F4BB2083
:102D6000BCF0C114D10481F18CE090E00E9478188D
:102D70009FEFA91AB90A282F2A9DC0012B9D900DFB
:102D80001124B6010E94151882E60E94680E29C01F
:102D90005701AC1ABD0AAC14BD04B0F4BB20A4F0BA
:102DA000C114D10489F08CE090E00E947818282F9B
:102DB0002A9DC0012B9D900D1124B6010E9415186B
:102DC00082E60E94680E0DC08CE090E00E947818A8
:102DD000682F82E60E94680E04C060E082E60E94CE
:102DE000680E0E151F0521F460E082E60E94680E51
:102DF0008091880090918900892B69F48091B300BB
:102E0000811109C087B5811106C080918A00909117
:102E10008B00892B49F085E090E00E947818682F9C
:102E200086E60E94680E04C060E086E60E94680E96
:102E300083E090E00E947818E82E82E090E00E9403
:102E400078180F2EFCE3FF2EF02D082F10E0FE9CCB
:102E5000000D111D112481E090E00E947818E82EE9
:102E600080E090E00E94781890E0FE9C800D911D1B
:102E70001124081719078CF4C017D107FCF1C817E3
:102E8000D9070CF03FC0289A63E082E10E94E00479
:102E90008AEF91E00E94D40649C08017910784F41C
:102EA000C017D1071CF4C817D90754F4289A63E057
:102EB00082E10E94E0048AEF91E00E94D40636C0CD
:102EC000289863E082E10E94E00482E191E00E94A0
:102ED000D4062CC0E016F1060CF4B3CCFACCE01604
:102EE000F1060CF486CDCDCDE016F1060CF459CEEA
:102EF000A0CEE016F1060CF42CCF73CF801791070B
:102F000094F2DECF801791078CF2DACF5E01A01A1F
:102F1000B10AA2CC5E01A01AB10A76CD5E01A01A58
:102F2000B10A4ACE5E01A01AB10A1ECFDF91CF913D
:102F30001F910F91FF90EF90DF90CF90BF90AF90D7
:102F40000895CF93DF9300D01F92CDB7DEB71092D4
:102F500001020E945E0E0E9424132FEF83EC99E081
:102F6000215080409040E1F700C000000E9483049F
:102F70002FEF87EA91E6215080409040E1F700C0B2
:102F800000000E94E50660E08DE20E94B20864E065
:102F900080E30E94B2086AE080E30E94B2086EE01B
:102FA00080E30E94B208CE0101967C01C82EDF2C7E
:102FB0000E94AC030E94A707182F0E94AC030E9436
:102FC0008507082F682F812F0E94B70B0E94740B72
:102FD000602F812F0E9488130E943C0881110E945B
:102FE0007A0F0E9413084AE06C2D7D2D90E00E941C
:102FF00043188091010290E0E816F906C9F260E0FA
:1030000082E10E94E00482E191E00E94D40660E047
:1030100082E10E94E0048C2D9D2D0E94D406E09256
:10302000010280EB0E94ED04C3CFAA1BBB1B51E140
:1030300007C0AA1FBB1FA617B70710F0A61BB70B28
:10304000881F991F5A95A9F780959095BC01CD01CD
:10305000089597FB072E16F4009407D077FD09D04A
:103060000E94151807FC05D03EF4909581959F4F5E
:103070000895709561957F4F0895EE0FFF1F05909D
:10308000F491E02D0994BB274A3031F4992322F4BE
:10309000BDE2909581959F4F0C944F18BB27FB0183
:1030A0005527AA27880F991FAA1FA41710F0A41B41
:1030B00083955051B9F7A05DAA3308F0A95DA1939B
:1030C000009779F7B111B1931192CB010C94681864
:1030D000DC01FC01672F71917723E1F7329704C07F
:1030E0007C916D9370836291AE17BF07C8F308950A
:1030F000F999FECF92BD81BDF89A992780B50895C0
:10310000A8E1B0E042E050E00C949B18262FF9991A
:10311000FECF1FBA92BD81BD20BD0FB6F894FA9ABA
:10312000F99A0FBE019608950E948618272F0C94D5
:103130008718DC01CB01FC01F999FECF06C0F2BD76
:10314000E1BDF89A319600B40D9241505040B8F765
:063150000895F894FFCF82
:103156002020202020202020202020202020202069
:1031660020202020200030003A00C4EBE8F2E5EBF6
:10317600FCEDEEF1F2FC20F0E0F1F12FE7E0EA00E1
:10318600CCE8EDF3F2FB3A2000D1E8F1F2E5ECED04
:10319600EEE520E2F0E5ECFF00C1E5EBFBE900CC53
:1031A600E0EAF1E8ECE0EBFCEDE0FF20FFF0EAEE10
:1031B600F1F2FC00C2F0E5ECFF20E2EAEBFEF7E5F7
:1031C600EDE8FF00C1E5EBFBE920F1E2E5F200C224
:1031D600F0E5ECFF20E2FBEAEBFEF7E5EDE8FF00A9
:1031E600CAF0E0F1EDFBE900CAF0E0F1EDFBE92001
:1031F600F1E2E5F200C7E5EBB8EDFBE900C7E5EB68
:10320600B8EDFBE920F1E2E5F200D1E8EDE8E900EE
:10321600D1E8EDE8E920F1E2E5F200C2E5EDF2E8F9
:10322600EBFFF2EEF000CCE8ED2E20F1EAEEF0EE48
:10323600F1F2FC00CCE0EAF12E20F1EAEEF0EEF13C
:0E324600F2FC00CFEEE4E0F7E020434F320050
:00000001FF
